{
	"solidity02/2.Library.sol": {
		"UseLibrary": {
			"abi": [
				{
					"inputs": [
						{
							"internalType": "uint256",
							"name": "_number",
							"type": "uint256"
						}
					],
					"name": "getString1",
					"outputs": [
						{
							"internalType": "string",
							"name": "",
							"type": "string"
						}
					],
					"stateMutability": "pure",
					"type": "function"
				},
				{
					"inputs": [
						{
							"internalType": "uint256",
							"name": "_number",
							"type": "uint256"
						}
					],
					"name": "getString2",
					"outputs": [
						{
							"internalType": "string",
							"name": "",
							"type": "string"
						}
					],
					"stateMutability": "pure",
					"type": "function"
				},
				{
					"inputs": [
						{
							"internalType": "uint256",
							"name": "num1",
							"type": "uint256"
						},
						{
							"internalType": "uint256",
							"name": "num2",
							"type": "uint256"
						},
						{
							"internalType": "uint256",
							"name": "day",
							"type": "uint256"
						}
					],
					"name": "info",
					"outputs": [
						{
							"internalType": "uint256",
							"name": "num3",
							"type": "uint256"
						},
						{
							"internalType": "uint256",
							"name": "m",
							"type": "uint256"
						}
					],
					"stateMutability": "pure",
					"type": "function"
				}
			],
			"devdoc": {
				"kind": "dev",
				"methods": {},
				"version": 1
			},
			"evm": {
				"assembly": "    /* \"solidity02/2.Library.sol\":2004:2665  contract UseLibrary {... */\n  mstore(0x40, 0x80)\n  callvalue\n  dup1\n  iszero\n  tag_1\n  jumpi\n  0x00\n  dup1\n  revert\ntag_1:\n  pop\n  dataSize(sub_0)\n  dup1\n  dataOffset(sub_0)\n  0x00\n  codecopy\n  0x00\n  return\nstop\n\nsub_0: assembly {\n        /* \"solidity02/2.Library.sol\":2004:2665  contract UseLibrary {... */\n      mstore(0x40, 0x80)\n      callvalue\n      dup1\n      iszero\n      tag_1\n      jumpi\n      0x00\n      dup1\n      revert\n    tag_1:\n      pop\n      jumpi(tag_2, lt(calldatasize, 0x04))\n      shr(0xe0, calldataload(0x00))\n      dup1\n      0x284965be\n      eq\n      tag_3\n      jumpi\n      dup1\n      0xd6ee0f32\n      eq\n      tag_4\n      jumpi\n      dup1\n      0xe65eac98\n      eq\n      tag_5\n      jumpi\n    tag_2:\n      0x00\n      dup1\n      revert\n        /* \"solidity02/2.Library.sol\":2457:2663  function info(... */\n    tag_3:\n      tag_6\n      0x04\n      dup1\n      calldatasize\n      sub\n      dup2\n      add\n      swap1\n      tag_7\n      swap2\n      swap1\n      tag_8\n      jump\t// in\n    tag_7:\n      tag_9\n      jump\t// in\n    tag_6:\n      mload(0x40)\n      tag_10\n      swap3\n      swap2\n      swap1\n      tag_11\n      jump\t// in\n    tag_10:\n      mload(0x40)\n      dup1\n      swap2\n      sub\n      swap1\n      return\n        /* \"solidity02/2.Library.sol\":2100:2282  function getString1(uint256 _number) public pure returns (string memory) {... */\n    tag_4:\n      tag_12\n      0x04\n      dup1\n      calldatasize\n      sub\n      dup2\n      add\n      swap1\n      tag_13\n      swap2\n      swap1\n      tag_14\n      jump\t// in\n    tag_13:\n      tag_15\n      jump\t// in\n    tag_12:\n      mload(0x40)\n      tag_16\n      swap2\n      swap1\n      tag_17\n      jump\t// in\n    tag_16:\n      mload(0x40)\n      dup1\n      swap2\n      sub\n      swap1\n      return\n        /* \"solidity02/2.Library.sol\":2326:2451  function getString2(uint256 _number) public pure returns (string memory) {... */\n    tag_5:\n      tag_18\n      0x04\n      dup1\n      calldatasize\n      sub\n      dup2\n      add\n      swap1\n      tag_19\n      swap2\n      swap1\n      tag_14\n      jump\t// in\n    tag_19:\n      tag_20\n      jump\t// in\n    tag_18:\n      mload(0x40)\n      tag_21\n      swap2\n      swap1\n      tag_17\n      jump\t// in\n    tag_21:\n      mload(0x40)\n      dup1\n      swap2\n      sub\n      swap1\n      return\n        /* \"solidity02/2.Library.sol\":2457:2663  function info(... */\n    tag_9:\n        /* \"solidity02/2.Library.sol\":2563:2575  uint256 num3 */\n      0x00\n        /* \"solidity02/2.Library.sol\":2577:2586  uint256 m */\n      dup1\n        /* \"solidity02/2.Library.sol\":2598:2610  uint256 num3 */\n      0x00\n        /* \"solidity02/2.Library.sol\":2620:2624  num2 */\n      dup5\n        /* \"solidity02/2.Library.sol\":2613:2617  num1 */\n      dup7\n        /* \"solidity02/2.Library.sol\":2613:2624  num1 / num2 */\n      tag_23\n      swap2\n      swap1\n      tag_24\n      jump\t// in\n    tag_23:\n        /* \"solidity02/2.Library.sol\":2598:2624  uint256 num3 = num1 / num2 */\n      swap1\n      pop\n        /* \"solidity02/2.Library.sol\":2634:2643  uint256 m */\n      0x00\n        /* \"solidity02/2.Library.sol\":2653:2656  day */\n      dup5\n        /* \"solidity02/2.Library.sol\":2646:2650  num3 */\n      dup3\n        /* \"solidity02/2.Library.sol\":2646:2656  num3 * day */\n      tag_25\n      swap2\n      swap1\n      tag_26\n      jump\t// in\n    tag_25:\n        /* \"solidity02/2.Library.sol\":2634:2656  uint256 m = num3 * day */\n      swap1\n      pop\n        /* \"solidity02/2.Library.sol\":2588:2663  {... */\n      pop\n      pop\n        /* \"solidity02/2.Library.sol\":2457:2663  function info(... */\n      swap4\n      pop\n      swap4\n      swap2\n      pop\n      pop\n      jump\t// out\n        /* \"solidity02/2.Library.sol\":2100:2282  function getString1(uint256 _number) public pure returns (string memory) {... */\n    tag_15:\n        /* \"solidity02/2.Library.sol\":2158:2171  string memory */\n      0x60\n        /* \"solidity02/2.Library.sol\":2254:2261  _number */\n      dup2\n        /* \"solidity02/2.Library.sol\":2254:2273  _number.toHexString */\n      linkerSymbol(\"f486350be2f2c24ea8f95add3a1ebd7cdfbb438489b613512f7ae2351ad485f5\")\n      0x8fba8d5c\n      swap1\n      swap2\n        /* \"solidity02/2.Library.sol\":2254:2275  _number.toHexString() */\n      mload(0x40)\n      dup3\n      0xffffffff\n      and\n      0xe0\n      shl\n      dup2\n      mstore\n      0x04\n      add\n      tag_28\n      swap2\n      swap1\n      tag_29\n      jump\t// in\n    tag_28:\n      0x00\n      mload(0x40)\n      dup1\n      dup4\n      sub\n      dup2\n      dup7\n      gas\n      delegatecall\n      iszero\n      dup1\n      iszero\n      tag_31\n      jumpi\n      returndatasize\n      0x00\n      dup1\n      returndatacopy\n      revert(0x00, returndatasize)\n    tag_31:\n      pop\n      pop\n      pop\n      pop\n      mload(0x40)\n      returndatasize\n      0x00\n      dup3\n      returndatacopy\n      returndatasize\n      not(0x1f)\n      0x1f\n      dup3\n      add\n      and\n      dup3\n      add\n      dup1\n      0x40\n      mstore\n      pop\n      dup2\n      add\n      swap1\n      tag_32\n      swap2\n      swap1\n      tag_33\n      jump\t// in\n    tag_32:\n        /* \"solidity02/2.Library.sol\":2247:2275  return _number.toHexString() */\n      swap1\n      pop\n        /* \"solidity02/2.Library.sol\":2100:2282  function getString1(uint256 _number) public pure returns (string memory) {... */\n      swap2\n      swap1\n      pop\n      jump\t// out\n        /* \"solidity02/2.Library.sol\":2326:2451  function getString2(uint256 _number) public pure returns (string memory) {... */\n    tag_20:\n        /* \"solidity02/2.Library.sol\":2384:2397  string memory */\n      0x60\n        /* \"solidity02/2.Library.sol\":2416:2423  Strings */\n      linkerSymbol(\"f486350be2f2c24ea8f95add3a1ebd7cdfbb438489b613512f7ae2351ad485f5\")\n        /* \"solidity02/2.Library.sol\":2416:2435  Strings.toHexString */\n      0x8fba8d5c\n        /* \"solidity02/2.Library.sol\":2436:2443  _number */\n      dup4\n        /* \"solidity02/2.Library.sol\":2416:2444  Strings.toHexString(_number) */\n      mload(0x40)\n      dup3\n      0xffffffff\n      and\n      0xe0\n      shl\n      dup2\n      mstore\n      0x04\n      add\n      tag_35\n      swap2\n      swap1\n      tag_29\n      jump\t// in\n    tag_35:\n      0x00\n      mload(0x40)\n      dup1\n      dup4\n      sub\n      dup2\n      dup7\n      gas\n      delegatecall\n      iszero\n      dup1\n      iszero\n      tag_37\n      jumpi\n      returndatasize\n      0x00\n      dup1\n      returndatacopy\n      revert(0x00, returndatasize)\n    tag_37:\n      pop\n      pop\n      pop\n      pop\n      mload(0x40)\n      returndatasize\n      0x00\n      dup3\n      returndatacopy\n      returndatasize\n      not(0x1f)\n      0x1f\n      dup3\n      add\n      and\n      dup3\n      add\n      dup1\n      0x40\n      mstore\n      pop\n      dup2\n      add\n      swap1\n      tag_38\n      swap2\n      swap1\n      tag_33\n      jump\t// in\n    tag_38:\n        /* \"solidity02/2.Library.sol\":2409:2444  return Strings.toHexString(_number) */\n      swap1\n      pop\n        /* \"solidity02/2.Library.sol\":2326:2451  function getString2(uint256 _number) public pure returns (string memory) {... */\n      swap2\n      swap1\n      pop\n      jump\t// out\n        /* \"#utility.yul\":7:82   */\n    tag_39:\n        /* \"#utility.yul\":40:46   */\n      0x00\n        /* \"#utility.yul\":73:75   */\n      0x40\n        /* \"#utility.yul\":67:76   */\n      mload\n        /* \"#utility.yul\":57:76   */\n      swap1\n      pop\n        /* \"#utility.yul\":7:82   */\n      swap1\n      jump\t// out\n        /* \"#utility.yul\":88:205   */\n    tag_40:\n        /* \"#utility.yul\":197:198   */\n      0x00\n        /* \"#utility.yul\":194:195   */\n      dup1\n        /* \"#utility.yul\":187:199   */\n      revert\n        /* \"#utility.yul\":211:328   */\n    tag_41:\n        /* \"#utility.yul\":320:321   */\n      0x00\n        /* \"#utility.yul\":317:318   */\n      dup1\n        /* \"#utility.yul\":310:322   */\n      revert\n        /* \"#utility.yul\":334:411   */\n    tag_42:\n        /* \"#utility.yul\":371:378   */\n      0x00\n        /* \"#utility.yul\":400:405   */\n      dup2\n        /* \"#utility.yul\":389:405   */\n      swap1\n      pop\n        /* \"#utility.yul\":334:411   */\n      swap2\n      swap1\n      pop\n      jump\t// out\n        /* \"#utility.yul\":417:539   */\n    tag_43:\n        /* \"#utility.yul\":490:514   */\n      tag_68\n        /* \"#utility.yul\":508:513   */\n      dup2\n        /* \"#utility.yul\":490:514   */\n      tag_42\n      jump\t// in\n    tag_68:\n        /* \"#utility.yul\":483:488   */\n      dup2\n        /* \"#utility.yul\":480:515   */\n      eq\n        /* \"#utility.yul\":470:533   */\n      tag_69\n      jumpi\n        /* \"#utility.yul\":529:530   */\n      0x00\n        /* \"#utility.yul\":526:527   */\n      dup1\n        /* \"#utility.yul\":519:531   */\n      revert\n        /* \"#utility.yul\":470:533   */\n    tag_69:\n        /* \"#utility.yul\":417:539   */\n      pop\n      jump\t// out\n        /* \"#utility.yul\":545:684   */\n    tag_44:\n        /* \"#utility.yul\":591:596   */\n      0x00\n        /* \"#utility.yul\":629:635   */\n      dup2\n        /* \"#utility.yul\":616:636   */\n      calldataload\n        /* \"#utility.yul\":607:636   */\n      swap1\n      pop\n        /* \"#utility.yul\":645:678   */\n      tag_71\n        /* \"#utility.yul\":672:677   */\n      dup2\n        /* \"#utility.yul\":645:678   */\n      tag_43\n      jump\t// in\n    tag_71:\n        /* \"#utility.yul\":545:684   */\n      swap3\n      swap2\n      pop\n      pop\n      jump\t// out\n        /* \"#utility.yul\":690:1309   */\n    tag_8:\n        /* \"#utility.yul\":767:773   */\n      0x00\n        /* \"#utility.yul\":775:781   */\n      dup1\n        /* \"#utility.yul\":783:789   */\n      0x00\n        /* \"#utility.yul\":832:834   */\n      0x60\n        /* \"#utility.yul\":820:829   */\n      dup5\n        /* \"#utility.yul\":811:818   */\n      dup7\n        /* \"#utility.yul\":807:830   */\n      sub\n        /* \"#utility.yul\":803:835   */\n      slt\n        /* \"#utility.yul\":800:919   */\n      iszero\n      tag_73\n      jumpi\n        /* \"#utility.yul\":838:917   */\n      tag_74\n      tag_40\n      jump\t// in\n    tag_74:\n        /* \"#utility.yul\":800:919   */\n    tag_73:\n        /* \"#utility.yul\":958:959   */\n      0x00\n        /* \"#utility.yul\":983:1036   */\n      tag_75\n        /* \"#utility.yul\":1028:1035   */\n      dup7\n        /* \"#utility.yul\":1019:1025   */\n      dup3\n        /* \"#utility.yul\":1008:1017   */\n      dup8\n        /* \"#utility.yul\":1004:1026   */\n      add\n        /* \"#utility.yul\":983:1036   */\n      tag_44\n      jump\t// in\n    tag_75:\n        /* \"#utility.yul\":973:1036   */\n      swap4\n      pop\n        /* \"#utility.yul\":929:1046   */\n      pop\n        /* \"#utility.yul\":1085:1087   */\n      0x20\n        /* \"#utility.yul\":1111:1164   */\n      tag_76\n        /* \"#utility.yul\":1156:1163   */\n      dup7\n        /* \"#utility.yul\":1147:1153   */\n      dup3\n        /* \"#utility.yul\":1136:1145   */\n      dup8\n        /* \"#utility.yul\":1132:1154   */\n      add\n        /* \"#utility.yul\":1111:1164   */\n      tag_44\n      jump\t// in\n    tag_76:\n        /* \"#utility.yul\":1101:1164   */\n      swap3\n      pop\n        /* \"#utility.yul\":1056:1174   */\n      pop\n        /* \"#utility.yul\":1213:1215   */\n      0x40\n        /* \"#utility.yul\":1239:1292   */\n      tag_77\n        /* \"#utility.yul\":1284:1291   */\n      dup7\n        /* \"#utility.yul\":1275:1281   */\n      dup3\n        /* \"#utility.yul\":1264:1273   */\n      dup8\n        /* \"#utility.yul\":1260:1282   */\n      add\n        /* \"#utility.yul\":1239:1292   */\n      tag_44\n      jump\t// in\n    tag_77:\n        /* \"#utility.yul\":1229:1292   */\n      swap2\n      pop\n        /* \"#utility.yul\":1184:1302   */\n      pop\n        /* \"#utility.yul\":690:1309   */\n      swap3\n      pop\n      swap3\n      pop\n      swap3\n      jump\t// out\n        /* \"#utility.yul\":1315:1433   */\n    tag_45:\n        /* \"#utility.yul\":1402:1426   */\n      tag_79\n        /* \"#utility.yul\":1420:1425   */\n      dup2\n        /* \"#utility.yul\":1402:1426   */\n      tag_42\n      jump\t// in\n    tag_79:\n        /* \"#utility.yul\":1397:1400   */\n      dup3\n        /* \"#utility.yul\":1390:1427   */\n      mstore\n        /* \"#utility.yul\":1315:1433   */\n      pop\n      pop\n      jump\t// out\n        /* \"#utility.yul\":1439:1771   */\n    tag_11:\n        /* \"#utility.yul\":1560:1564   */\n      0x00\n        /* \"#utility.yul\":1598:1600   */\n      0x40\n        /* \"#utility.yul\":1587:1596   */\n      dup3\n        /* \"#utility.yul\":1583:1601   */\n      add\n        /* \"#utility.yul\":1575:1601   */\n      swap1\n      pop\n        /* \"#utility.yul\":1611:1682   */\n      tag_81\n        /* \"#utility.yul\":1679:1680   */\n      0x00\n        /* \"#utility.yul\":1668:1677   */\n      dup4\n        /* \"#utility.yul\":1664:1681   */\n      add\n        /* \"#utility.yul\":1655:1661   */\n      dup6\n        /* \"#utility.yul\":1611:1682   */\n      tag_45\n      jump\t// in\n    tag_81:\n        /* \"#utility.yul\":1692:1764   */\n      tag_82\n        /* \"#utility.yul\":1760:1762   */\n      0x20\n        /* \"#utility.yul\":1749:1758   */\n      dup4\n        /* \"#utility.yul\":1745:1763   */\n      add\n        /* \"#utility.yul\":1736:1742   */\n      dup5\n        /* \"#utility.yul\":1692:1764   */\n      tag_45\n      jump\t// in\n    tag_82:\n        /* \"#utility.yul\":1439:1771   */\n      swap4\n      swap3\n      pop\n      pop\n      pop\n      jump\t// out\n        /* \"#utility.yul\":1777:2106   */\n    tag_14:\n        /* \"#utility.yul\":1836:1842   */\n      0x00\n        /* \"#utility.yul\":1885:1887   */\n      0x20\n        /* \"#utility.yul\":1873:1882   */\n      dup3\n        /* \"#utility.yul\":1864:1871   */\n      dup5\n        /* \"#utility.yul\":1860:1883   */\n      sub\n        /* \"#utility.yul\":1856:1888   */\n      slt\n        /* \"#utility.yul\":1853:1972   */\n      iszero\n      tag_84\n      jumpi\n        /* \"#utility.yul\":1891:1970   */\n      tag_85\n      tag_40\n      jump\t// in\n    tag_85:\n        /* \"#utility.yul\":1853:1972   */\n    tag_84:\n        /* \"#utility.yul\":2011:2012   */\n      0x00\n        /* \"#utility.yul\":2036:2089   */\n      tag_86\n        /* \"#utility.yul\":2081:2088   */\n      dup5\n        /* \"#utility.yul\":2072:2078   */\n      dup3\n        /* \"#utility.yul\":2061:2070   */\n      dup6\n        /* \"#utility.yul\":2057:2079   */\n      add\n        /* \"#utility.yul\":2036:2089   */\n      tag_44\n      jump\t// in\n    tag_86:\n        /* \"#utility.yul\":2026:2089   */\n      swap2\n      pop\n        /* \"#utility.yul\":1982:2099   */\n      pop\n        /* \"#utility.yul\":1777:2106   */\n      swap3\n      swap2\n      pop\n      pop\n      jump\t// out\n        /* \"#utility.yul\":2112:2211   */\n    tag_46:\n        /* \"#utility.yul\":2164:2170   */\n      0x00\n        /* \"#utility.yul\":2198:2203   */\n      dup2\n        /* \"#utility.yul\":2192:2204   */\n      mload\n        /* \"#utility.yul\":2182:2204   */\n      swap1\n      pop\n        /* \"#utility.yul\":2112:2211   */\n      swap2\n      swap1\n      pop\n      jump\t// out\n        /* \"#utility.yul\":2217:2386   */\n    tag_47:\n        /* \"#utility.yul\":2301:2312   */\n      0x00\n        /* \"#utility.yul\":2335:2341   */\n      dup3\n        /* \"#utility.yul\":2330:2333   */\n      dup3\n        /* \"#utility.yul\":2323:2342   */\n      mstore\n        /* \"#utility.yul\":2375:2379   */\n      0x20\n        /* \"#utility.yul\":2370:2373   */\n      dup3\n        /* \"#utility.yul\":2366:2380   */\n      add\n        /* \"#utility.yul\":2351:2380   */\n      swap1\n      pop\n        /* \"#utility.yul\":2217:2386   */\n      swap3\n      swap2\n      pop\n      pop\n      jump\t// out\n        /* \"#utility.yul\":2392:2531   */\n    tag_48:\n        /* \"#utility.yul\":2481:2487   */\n      dup3\n        /* \"#utility.yul\":2476:2479   */\n      dup2\n        /* \"#utility.yul\":2471:2474   */\n      dup4\n        /* \"#utility.yul\":2465:2488   */\n      mcopy\n        /* \"#utility.yul\":2522:2523   */\n      0x00\n        /* \"#utility.yul\":2513:2519   */\n      dup4\n        /* \"#utility.yul\":2508:2511   */\n      dup4\n        /* \"#utility.yul\":2504:2520   */\n      add\n        /* \"#utility.yul\":2497:2524   */\n      mstore\n        /* \"#utility.yul\":2392:2531   */\n      pop\n      pop\n      pop\n      jump\t// out\n        /* \"#utility.yul\":2537:2639   */\n    tag_49:\n        /* \"#utility.yul\":2578:2584   */\n      0x00\n        /* \"#utility.yul\":2629:2631   */\n      0x1f\n        /* \"#utility.yul\":2625:2632   */\n      not\n        /* \"#utility.yul\":2620:2622   */\n      0x1f\n        /* \"#utility.yul\":2613:2618   */\n      dup4\n        /* \"#utility.yul\":2609:2623   */\n      add\n        /* \"#utility.yul\":2605:2633   */\n      and\n        /* \"#utility.yul\":2595:2633   */\n      swap1\n      pop\n        /* \"#utility.yul\":2537:2639   */\n      swap2\n      swap1\n      pop\n      jump\t// out\n        /* \"#utility.yul\":2645:3022   */\n    tag_50:\n        /* \"#utility.yul\":2733:2736   */\n      0x00\n        /* \"#utility.yul\":2761:2800   */\n      tag_92\n        /* \"#utility.yul\":2794:2799   */\n      dup3\n        /* \"#utility.yul\":2761:2800   */\n      tag_46\n      jump\t// in\n    tag_92:\n        /* \"#utility.yul\":2816:2887   */\n      tag_93\n        /* \"#utility.yul\":2880:2886   */\n      dup2\n        /* \"#utility.yul\":2875:2878   */\n      dup6\n        /* \"#utility.yul\":2816:2887   */\n      tag_47\n      jump\t// in\n    tag_93:\n        /* \"#utility.yul\":2809:2887   */\n      swap4\n      pop\n        /* \"#utility.yul\":2896:2961   */\n      tag_94\n        /* \"#utility.yul\":2954:2960   */\n      dup2\n        /* \"#utility.yul\":2949:2952   */\n      dup6\n        /* \"#utility.yul\":2942:2946   */\n      0x20\n        /* \"#utility.yul\":2935:2940   */\n      dup7\n        /* \"#utility.yul\":2931:2947   */\n      add\n        /* \"#utility.yul\":2896:2961   */\n      tag_48\n      jump\t// in\n    tag_94:\n        /* \"#utility.yul\":2986:3015   */\n      tag_95\n        /* \"#utility.yul\":3008:3014   */\n      dup2\n        /* \"#utility.yul\":2986:3015   */\n      tag_49\n      jump\t// in\n    tag_95:\n        /* \"#utility.yul\":2981:2984   */\n      dup5\n        /* \"#utility.yul\":2977:3016   */\n      add\n        /* \"#utility.yul\":2970:3016   */\n      swap2\n      pop\n        /* \"#utility.yul\":2737:3022   */\n      pop\n        /* \"#utility.yul\":2645:3022   */\n      swap3\n      swap2\n      pop\n      pop\n      jump\t// out\n        /* \"#utility.yul\":3028:3341   */\n    tag_17:\n        /* \"#utility.yul\":3141:3145   */\n      0x00\n        /* \"#utility.yul\":3179:3181   */\n      0x20\n        /* \"#utility.yul\":3168:3177   */\n      dup3\n        /* \"#utility.yul\":3164:3182   */\n      add\n        /* \"#utility.yul\":3156:3182   */\n      swap1\n      pop\n        /* \"#utility.yul\":3228:3237   */\n      dup2\n        /* \"#utility.yul\":3222:3226   */\n      dup2\n        /* \"#utility.yul\":3218:3238   */\n      sub\n        /* \"#utility.yul\":3214:3215   */\n      0x00\n        /* \"#utility.yul\":3203:3212   */\n      dup4\n        /* \"#utility.yul\":3199:3216   */\n      add\n        /* \"#utility.yul\":3192:3239   */\n      mstore\n        /* \"#utility.yul\":3256:3334   */\n      tag_97\n        /* \"#utility.yul\":3329:3333   */\n      dup2\n        /* \"#utility.yul\":3320:3326   */\n      dup5\n        /* \"#utility.yul\":3256:3334   */\n      tag_50\n      jump\t// in\n    tag_97:\n        /* \"#utility.yul\":3248:3334   */\n      swap1\n      pop\n        /* \"#utility.yul\":3028:3341   */\n      swap3\n      swap2\n      pop\n      pop\n      jump\t// out\n        /* \"#utility.yul\":3347:3527   */\n    tag_51:\n        /* \"#utility.yul\":3395:3472   */\n      0x4e487b7100000000000000000000000000000000000000000000000000000000\n        /* \"#utility.yul\":3392:3393   */\n      0x00\n        /* \"#utility.yul\":3385:3473   */\n      mstore\n        /* \"#utility.yul\":3492:3496   */\n      0x12\n        /* \"#utility.yul\":3489:3490   */\n      0x04\n        /* \"#utility.yul\":3482:3497   */\n      mstore\n        /* \"#utility.yul\":3516:3520   */\n      0x24\n        /* \"#utility.yul\":3513:3514   */\n      0x00\n        /* \"#utility.yul\":3506:3521   */\n      revert\n        /* \"#utility.yul\":3533:3713   */\n    tag_52:\n        /* \"#utility.yul\":3581:3658   */\n      0x4e487b7100000000000000000000000000000000000000000000000000000000\n        /* \"#utility.yul\":3578:3579   */\n      0x00\n        /* \"#utility.yul\":3571:3659   */\n      mstore\n        /* \"#utility.yul\":3678:3682   */\n      0x11\n        /* \"#utility.yul\":3675:3676   */\n      0x04\n        /* \"#utility.yul\":3668:3683   */\n      mstore\n        /* \"#utility.yul\":3702:3706   */\n      0x24\n        /* \"#utility.yul\":3699:3700   */\n      0x00\n        /* \"#utility.yul\":3692:3707   */\n      revert\n        /* \"#utility.yul\":3719:3904   */\n    tag_24:\n        /* \"#utility.yul\":3759:3760   */\n      0x00\n        /* \"#utility.yul\":3776:3796   */\n      tag_101\n        /* \"#utility.yul\":3794:3795   */\n      dup3\n        /* \"#utility.yul\":3776:3796   */\n      tag_42\n      jump\t// in\n    tag_101:\n        /* \"#utility.yul\":3771:3796   */\n      swap2\n      pop\n        /* \"#utility.yul\":3810:3830   */\n      tag_102\n        /* \"#utility.yul\":3828:3829   */\n      dup4\n        /* \"#utility.yul\":3810:3830   */\n      tag_42\n      jump\t// in\n    tag_102:\n        /* \"#utility.yul\":3805:3830   */\n      swap3\n      pop\n        /* \"#utility.yul\":3849:3850   */\n      dup3\n        /* \"#utility.yul\":3839:3874   */\n      tag_103\n      jumpi\n        /* \"#utility.yul\":3854:3872   */\n      tag_104\n      tag_51\n      jump\t// in\n    tag_104:\n        /* \"#utility.yul\":3839:3874   */\n    tag_103:\n        /* \"#utility.yul\":3896:3897   */\n      dup3\n        /* \"#utility.yul\":3893:3894   */\n      dup3\n        /* \"#utility.yul\":3889:3898   */\n      div\n        /* \"#utility.yul\":3884:3898   */\n      swap1\n      pop\n        /* \"#utility.yul\":3719:3904   */\n      swap3\n      swap2\n      pop\n      pop\n      jump\t// out\n        /* \"#utility.yul\":3910:4320   */\n    tag_26:\n        /* \"#utility.yul\":3950:3957   */\n      0x00\n        /* \"#utility.yul\":3973:3993   */\n      tag_106\n        /* \"#utility.yul\":3991:3992   */\n      dup3\n        /* \"#utility.yul\":3973:3993   */\n      tag_42\n      jump\t// in\n    tag_106:\n        /* \"#utility.yul\":3968:3993   */\n      swap2\n      pop\n        /* \"#utility.yul\":4007:4027   */\n      tag_107\n        /* \"#utility.yul\":4025:4026   */\n      dup4\n        /* \"#utility.yul\":4007:4027   */\n      tag_42\n      jump\t// in\n    tag_107:\n        /* \"#utility.yul\":4002:4027   */\n      swap3\n      pop\n        /* \"#utility.yul\":4062:4063   */\n      dup3\n        /* \"#utility.yul\":4059:4060   */\n      dup3\n        /* \"#utility.yul\":4055:4064   */\n      mul\n        /* \"#utility.yul\":4084:4114   */\n      tag_108\n        /* \"#utility.yul\":4102:4113   */\n      dup2\n        /* \"#utility.yul\":4084:4114   */\n      tag_42\n      jump\t// in\n    tag_108:\n        /* \"#utility.yul\":4073:4114   */\n      swap2\n      pop\n        /* \"#utility.yul\":4263:4264   */\n      dup3\n        /* \"#utility.yul\":4254:4261   */\n      dup3\n        /* \"#utility.yul\":4250:4265   */\n      div\n        /* \"#utility.yul\":4247:4248   */\n      dup5\n        /* \"#utility.yul\":4244:4266   */\n      eq\n        /* \"#utility.yul\":4224:4225   */\n      dup4\n        /* \"#utility.yul\":4217:4226   */\n      iszero\n        /* \"#utility.yul\":4197:4280   */\n      or\n        /* \"#utility.yul\":4174:4313   */\n      tag_109\n      jumpi\n        /* \"#utility.yul\":4293:4311   */\n      tag_110\n      tag_52\n      jump\t// in\n    tag_110:\n        /* \"#utility.yul\":4174:4313   */\n    tag_109:\n        /* \"#utility.yul\":3958:4320   */\n      pop\n        /* \"#utility.yul\":3910:4320   */\n      swap3\n      swap2\n      pop\n      pop\n      jump\t// out\n        /* \"#utility.yul\":4326:4452   */\n    tag_53:\n        /* \"#utility.yul\":4421:4445   */\n      tag_112\n        /* \"#utility.yul\":4439:4444   */\n      dup2\n        /* \"#utility.yul\":4421:4445   */\n      tag_42\n      jump\t// in\n    tag_112:\n        /* \"#utility.yul\":4416:4419   */\n      dup3\n        /* \"#utility.yul\":4409:4446   */\n      mstore\n        /* \"#utility.yul\":4326:4452   */\n      pop\n      pop\n      jump\t// out\n        /* \"#utility.yul\":4458:4696   */\n    tag_29:\n        /* \"#utility.yul\":4559:4563   */\n      0x00\n        /* \"#utility.yul\":4597:4599   */\n      0x20\n        /* \"#utility.yul\":4586:4595   */\n      dup3\n        /* \"#utility.yul\":4582:4600   */\n      add\n        /* \"#utility.yul\":4574:4600   */\n      swap1\n      pop\n        /* \"#utility.yul\":4610:4689   */\n      tag_114\n        /* \"#utility.yul\":4686:4687   */\n      0x00\n        /* \"#utility.yul\":4675:4684   */\n      dup4\n        /* \"#utility.yul\":4671:4688   */\n      add\n        /* \"#utility.yul\":4662:4668   */\n      dup5\n        /* \"#utility.yul\":4610:4689   */\n      tag_53\n      jump\t// in\n    tag_114:\n        /* \"#utility.yul\":4458:4696   */\n      swap3\n      swap2\n      pop\n      pop\n      jump\t// out\n        /* \"#utility.yul\":4702:4819   */\n    tag_54:\n        /* \"#utility.yul\":4811:4812   */\n      0x00\n        /* \"#utility.yul\":4808:4809   */\n      dup1\n        /* \"#utility.yul\":4801:4813   */\n      revert\n        /* \"#utility.yul\":4825:4942   */\n    tag_55:\n        /* \"#utility.yul\":4934:4935   */\n      0x00\n        /* \"#utility.yul\":4931:4932   */\n      dup1\n        /* \"#utility.yul\":4924:4936   */\n      revert\n        /* \"#utility.yul\":4948:5128   */\n    tag_56:\n        /* \"#utility.yul\":4996:5073   */\n      0x4e487b7100000000000000000000000000000000000000000000000000000000\n        /* \"#utility.yul\":4993:4994   */\n      0x00\n        /* \"#utility.yul\":4986:5074   */\n      mstore\n        /* \"#utility.yul\":5093:5097   */\n      0x41\n        /* \"#utility.yul\":5090:5091   */\n      0x04\n        /* \"#utility.yul\":5083:5098   */\n      mstore\n        /* \"#utility.yul\":5117:5121   */\n      0x24\n        /* \"#utility.yul\":5114:5115   */\n      0x00\n        /* \"#utility.yul\":5107:5122   */\n      revert\n        /* \"#utility.yul\":5134:5415   */\n    tag_57:\n        /* \"#utility.yul\":5217:5244   */\n      tag_119\n        /* \"#utility.yul\":5239:5243   */\n      dup3\n        /* \"#utility.yul\":5217:5244   */\n      tag_49\n      jump\t// in\n    tag_119:\n        /* \"#utility.yul\":5209:5215   */\n      dup2\n        /* \"#utility.yul\":5205:5245   */\n      add\n        /* \"#utility.yul\":5347:5353   */\n      dup2\n        /* \"#utility.yul\":5335:5345   */\n      dup2\n        /* \"#utility.yul\":5332:5354   */\n      lt\n        /* \"#utility.yul\":5311:5329   */\n      0xffffffffffffffff\n        /* \"#utility.yul\":5299:5309   */\n      dup3\n        /* \"#utility.yul\":5296:5330   */\n      gt\n        /* \"#utility.yul\":5293:5355   */\n      or\n        /* \"#utility.yul\":5290:5378   */\n      iszero\n      tag_120\n      jumpi\n        /* \"#utility.yul\":5358:5376   */\n      tag_121\n      tag_56\n      jump\t// in\n    tag_121:\n        /* \"#utility.yul\":5290:5378   */\n    tag_120:\n        /* \"#utility.yul\":5398:5408   */\n      dup1\n        /* \"#utility.yul\":5394:5396   */\n      0x40\n        /* \"#utility.yul\":5387:5409   */\n      mstore\n        /* \"#utility.yul\":5177:5415   */\n      pop\n        /* \"#utility.yul\":5134:5415   */\n      pop\n      pop\n      jump\t// out\n        /* \"#utility.yul\":5421:5550   */\n    tag_58:\n        /* \"#utility.yul\":5455:5461   */\n      0x00\n        /* \"#utility.yul\":5482:5502   */\n      tag_123\n      tag_39\n      jump\t// in\n    tag_123:\n        /* \"#utility.yul\":5472:5502   */\n      swap1\n      pop\n        /* \"#utility.yul\":5511:5544   */\n      tag_124\n        /* \"#utility.yul\":5539:5543   */\n      dup3\n        /* \"#utility.yul\":5531:5537   */\n      dup3\n        /* \"#utility.yul\":5511:5544   */\n      tag_57\n      jump\t// in\n    tag_124:\n        /* \"#utility.yul\":5421:5550   */\n      swap2\n      swap1\n      pop\n      jump\t// out\n        /* \"#utility.yul\":5556:5864   */\n    tag_59:\n        /* \"#utility.yul\":5618:5622   */\n      0x00\n        /* \"#utility.yul\":5708:5726   */\n      0xffffffffffffffff\n        /* \"#utility.yul\":5700:5706   */\n      dup3\n        /* \"#utility.yul\":5697:5727   */\n      gt\n        /* \"#utility.yul\":5694:5750   */\n      iszero\n      tag_126\n      jumpi\n        /* \"#utility.yul\":5730:5748   */\n      tag_127\n      tag_56\n      jump\t// in\n    tag_127:\n        /* \"#utility.yul\":5694:5750   */\n    tag_126:\n        /* \"#utility.yul\":5768:5797   */\n      tag_128\n        /* \"#utility.yul\":5790:5796   */\n      dup3\n        /* \"#utility.yul\":5768:5797   */\n      tag_49\n      jump\t// in\n    tag_128:\n        /* \"#utility.yul\":5760:5797   */\n      swap1\n      pop\n        /* \"#utility.yul\":5852:5856   */\n      0x20\n        /* \"#utility.yul\":5846:5850   */\n      dup2\n        /* \"#utility.yul\":5842:5857   */\n      add\n        /* \"#utility.yul\":5834:5857   */\n      swap1\n      pop\n        /* \"#utility.yul\":5556:5864   */\n      swap2\n      swap1\n      pop\n      jump\t// out\n        /* \"#utility.yul\":5870:6304   */\n    tag_60:\n        /* \"#utility.yul\":5959:5964   */\n      0x00\n        /* \"#utility.yul\":5984:6050   */\n      tag_130\n        /* \"#utility.yul\":6000:6049   */\n      tag_131\n        /* \"#utility.yul\":6042:6048   */\n      dup5\n        /* \"#utility.yul\":6000:6049   */\n      tag_59\n      jump\t// in\n    tag_131:\n        /* \"#utility.yul\":5984:6050   */\n      tag_58\n      jump\t// in\n    tag_130:\n        /* \"#utility.yul\":5975:6050   */\n      swap1\n      pop\n        /* \"#utility.yul\":6073:6079   */\n      dup3\n        /* \"#utility.yul\":6066:6071   */\n      dup2\n        /* \"#utility.yul\":6059:6080   */\n      mstore\n        /* \"#utility.yul\":6111:6115   */\n      0x20\n        /* \"#utility.yul\":6104:6109   */\n      dup2\n        /* \"#utility.yul\":6100:6116   */\n      add\n        /* \"#utility.yul\":6149:6152   */\n      dup5\n        /* \"#utility.yul\":6140:6146   */\n      dup5\n        /* \"#utility.yul\":6135:6138   */\n      dup5\n        /* \"#utility.yul\":6131:6147   */\n      add\n        /* \"#utility.yul\":6128:6153   */\n      gt\n        /* \"#utility.yul\":6125:6237   */\n      iszero\n      tag_132\n      jumpi\n        /* \"#utility.yul\":6156:6235   */\n      tag_133\n      tag_55\n      jump\t// in\n    tag_133:\n        /* \"#utility.yul\":6125:6237   */\n    tag_132:\n        /* \"#utility.yul\":6246:6298   */\n      tag_134\n        /* \"#utility.yul\":6291:6297   */\n      dup5\n        /* \"#utility.yul\":6286:6289   */\n      dup3\n        /* \"#utility.yul\":6281:6284   */\n      dup6\n        /* \"#utility.yul\":6246:6298   */\n      tag_48\n      jump\t// in\n    tag_134:\n        /* \"#utility.yul\":5965:6304   */\n      pop\n        /* \"#utility.yul\":5870:6304   */\n      swap4\n      swap3\n      pop\n      pop\n      pop\n      jump\t// out\n        /* \"#utility.yul\":6324:6679   */\n    tag_61:\n        /* \"#utility.yul\":6391:6396   */\n      0x00\n        /* \"#utility.yul\":6440:6443   */\n      dup3\n        /* \"#utility.yul\":6433:6437   */\n      0x1f\n        /* \"#utility.yul\":6425:6431   */\n      dup4\n        /* \"#utility.yul\":6421:6438   */\n      add\n        /* \"#utility.yul\":6417:6444   */\n      slt\n        /* \"#utility.yul\":6407:6529   */\n      tag_136\n      jumpi\n        /* \"#utility.yul\":6448:6527   */\n      tag_137\n      tag_54\n      jump\t// in\n    tag_137:\n        /* \"#utility.yul\":6407:6529   */\n    tag_136:\n        /* \"#utility.yul\":6558:6564   */\n      dup2\n        /* \"#utility.yul\":6552:6565   */\n      mload\n        /* \"#utility.yul\":6583:6673   */\n      tag_138\n        /* \"#utility.yul\":6669:6672   */\n      dup5\n        /* \"#utility.yul\":6661:6667   */\n      dup3\n        /* \"#utility.yul\":6654:6658   */\n      0x20\n        /* \"#utility.yul\":6646:6652   */\n      dup7\n        /* \"#utility.yul\":6642:6659   */\n      add\n        /* \"#utility.yul\":6583:6673   */\n      tag_60\n      jump\t// in\n    tag_138:\n        /* \"#utility.yul\":6574:6673   */\n      swap2\n      pop\n        /* \"#utility.yul\":6397:6679   */\n      pop\n        /* \"#utility.yul\":6324:6679   */\n      swap3\n      swap2\n      pop\n      pop\n      jump\t// out\n        /* \"#utility.yul\":6685:7209   */\n    tag_33:\n        /* \"#utility.yul\":6765:6771   */\n      0x00\n        /* \"#utility.yul\":6814:6816   */\n      0x20\n        /* \"#utility.yul\":6802:6811   */\n      dup3\n        /* \"#utility.yul\":6793:6800   */\n      dup5\n        /* \"#utility.yul\":6789:6812   */\n      sub\n        /* \"#utility.yul\":6785:6817   */\n      slt\n        /* \"#utility.yul\":6782:6901   */\n      iszero\n      tag_140\n      jumpi\n        /* \"#utility.yul\":6820:6899   */\n      tag_141\n      tag_40\n      jump\t// in\n    tag_141:\n        /* \"#utility.yul\":6782:6901   */\n    tag_140:\n        /* \"#utility.yul\":6961:6962   */\n      0x00\n        /* \"#utility.yul\":6950:6959   */\n      dup3\n        /* \"#utility.yul\":6946:6963   */\n      add\n        /* \"#utility.yul\":6940:6964   */\n      mload\n        /* \"#utility.yul\":6991:7009   */\n      0xffffffffffffffff\n        /* \"#utility.yul\":6983:6989   */\n      dup2\n        /* \"#utility.yul\":6980:7010   */\n      gt\n        /* \"#utility.yul\":6977:7094   */\n      iszero\n      tag_142\n      jumpi\n        /* \"#utility.yul\":7013:7092   */\n      tag_143\n      tag_41\n      jump\t// in\n    tag_143:\n        /* \"#utility.yul\":6977:7094   */\n    tag_142:\n        /* \"#utility.yul\":7118:7192   */\n      tag_144\n        /* \"#utility.yul\":7184:7191   */\n      dup5\n        /* \"#utility.yul\":7175:7181   */\n      dup3\n        /* \"#utility.yul\":7164:7173   */\n      dup6\n        /* \"#utility.yul\":7160:7182   */\n      add\n        /* \"#utility.yul\":7118:7192   */\n      tag_61\n      jump\t// in\n    tag_144:\n        /* \"#utility.yul\":7108:7192   */\n      swap2\n      pop\n        /* \"#utility.yul\":6911:7202   */\n      pop\n        /* \"#utility.yul\":6685:7209   */\n      swap3\n      swap2\n      pop\n      pop\n      jump\t// out\n\n    auxdata: 0xa2646970667358221220532fa43eb778fb6098dc453fe6327bda3e2b425a62f01298c4d45414312e5c6264736f6c634300081a0033\n}\n",
				"bytecode": {
					"linkReferences": {
						"solidity02/2.Library.sol": {
							"Strings": [
								{
									"length": 20,
									"start": 287
								},
								{
									"length": 20,
									"start": 418
								}
							]
						}
					},
					"object": "6080604052348015600e575f80fd5b506106178061001c5f395ff3fe608060405234801561000f575f80fd5b506004361061003f575f3560e01c8063284965be14610043578063d6ee0f3214610074578063e65eac98146100a4575b5f80fd5b61005d60048036038101906100589190610248565b6100d4565b60405161006b9291906102a7565b60405180910390f35b61008e600480360381019061008991906102ce565b6100fe565b60405161009b9190610369565b60405180910390f35b6100be60048036038101906100b991906102ce565b610182565b6040516100cb9190610369565b60405180910390f35b5f805f84866100e391906103e3565b90505f84826100f29190610413565b90505050935093915050565b60608173__$f486350be2f2c24ea8f95add3a1ebd7cdf$__638fba8d5c90916040518263ffffffff1660e01b81526004016101399190610463565b5f60405180830381865af4158015610153573d5f803e3d5ffd5b505050506040513d5f823e3d601f19601f8201168201806040525081019061017b919061059a565b9050919050565b606073__$f486350be2f2c24ea8f95add3a1ebd7cdf$__638fba8d5c836040518263ffffffff1660e01b81526004016101bb9190610463565b5f60405180830381865af41580156101d5573d5f803e3d5ffd5b505050506040513d5f823e3d601f19601f820116820180604052508101906101fd919061059a565b9050919050565b5f604051905090565b5f80fd5b5f80fd5b5f819050919050565b61022781610215565b8114610231575f80fd5b50565b5f813590506102428161021e565b92915050565b5f805f6060848603121561025f5761025e61020d565b5b5f61026c86828701610234565b935050602061027d86828701610234565b925050604061028e86828701610234565b9150509250925092565b6102a181610215565b82525050565b5f6040820190506102ba5f830185610298565b6102c76020830184610298565b9392505050565b5f602082840312156102e3576102e261020d565b5b5f6102f084828501610234565b91505092915050565b5f81519050919050565b5f82825260208201905092915050565b8281835e5f83830152505050565b5f601f19601f8301169050919050565b5f61033b826102f9565b6103458185610303565b9350610355818560208601610313565b61035e81610321565b840191505092915050565b5f6020820190508181035f8301526103818184610331565b905092915050565b7f4e487b71000000000000000000000000000000000000000000000000000000005f52601260045260245ffd5b7f4e487b71000000000000000000000000000000000000000000000000000000005f52601160045260245ffd5b5f6103ed82610215565b91506103f883610215565b92508261040857610407610389565b5b828204905092915050565b5f61041d82610215565b915061042883610215565b925082820261043681610215565b9150828204841483151761044d5761044c6103b6565b5b5092915050565b61045d81610215565b82525050565b5f6020820190506104765f830184610454565b92915050565b5f80fd5b5f80fd5b7f4e487b71000000000000000000000000000000000000000000000000000000005f52604160045260245ffd5b6104ba82610321565b810181811067ffffffffffffffff821117156104d9576104d8610484565b5b80604052505050565b5f6104eb610204565b90506104f782826104b1565b919050565b5f67ffffffffffffffff82111561051657610515610484565b5b61051f82610321565b9050602081019050919050565b5f61053e610539846104fc565b6104e2565b90508281526020810184848401111561055a57610559610480565b5b610565848285610313565b509392505050565b5f82601f8301126105815761058061047c565b5b815161059184826020860161052c565b91505092915050565b5f602082840312156105af576105ae61020d565b5b5f82015167ffffffffffffffff8111156105cc576105cb610211565b5b6105d88482850161056d565b9150509291505056fea2646970667358221220532fa43eb778fb6098dc453fe6327bda3e2b425a62f01298c4d45414312e5c6264736f6c634300081a0033",
					"opcodes": "PUSH1 0x80 PUSH1 0x40 MSTORE CALLVALUE DUP1 ISZERO PUSH1 0xE JUMPI PUSH0 DUP1 REVERT JUMPDEST POP PUSH2 0x617 DUP1 PUSH2 0x1C PUSH0 CODECOPY PUSH0 RETURN INVALID PUSH1 0x80 PUSH1 0x40 MSTORE CALLVALUE DUP1 ISZERO PUSH2 0xF JUMPI PUSH0 DUP1 REVERT JUMPDEST POP PUSH1 0x4 CALLDATASIZE LT PUSH2 0x3F JUMPI PUSH0 CALLDATALOAD PUSH1 0xE0 SHR DUP1 PUSH4 0x284965BE EQ PUSH2 0x43 JUMPI DUP1 PUSH4 0xD6EE0F32 EQ PUSH2 0x74 JUMPI DUP1 PUSH4 0xE65EAC98 EQ PUSH2 0xA4 JUMPI JUMPDEST PUSH0 DUP1 REVERT JUMPDEST PUSH2 0x5D PUSH1 0x4 DUP1 CALLDATASIZE SUB DUP2 ADD SWAP1 PUSH2 0x58 SWAP2 SWAP1 PUSH2 0x248 JUMP JUMPDEST PUSH2 0xD4 JUMP JUMPDEST PUSH1 0x40 MLOAD PUSH2 0x6B SWAP3 SWAP2 SWAP1 PUSH2 0x2A7 JUMP JUMPDEST PUSH1 0x40 MLOAD DUP1 SWAP2 SUB SWAP1 RETURN JUMPDEST PUSH2 0x8E PUSH1 0x4 DUP1 CALLDATASIZE SUB DUP2 ADD SWAP1 PUSH2 0x89 SWAP2 SWAP1 PUSH2 0x2CE JUMP JUMPDEST PUSH2 0xFE JUMP JUMPDEST PUSH1 0x40 MLOAD PUSH2 0x9B SWAP2 SWAP1 PUSH2 0x369 JUMP JUMPDEST PUSH1 0x40 MLOAD DUP1 SWAP2 SUB SWAP1 RETURN JUMPDEST PUSH2 0xBE PUSH1 0x4 DUP1 CALLDATASIZE SUB DUP2 ADD SWAP1 PUSH2 0xB9 SWAP2 SWAP1 PUSH2 0x2CE JUMP JUMPDEST PUSH2 0x182 JUMP JUMPDEST PUSH1 0x40 MLOAD PUSH2 0xCB SWAP2 SWAP1 PUSH2 0x369 JUMP JUMPDEST PUSH1 0x40 MLOAD DUP1 SWAP2 SUB SWAP1 RETURN JUMPDEST PUSH0 DUP1 PUSH0 DUP5 DUP7 PUSH2 0xE3 SWAP2 SWAP1 PUSH2 0x3E3 JUMP JUMPDEST SWAP1 POP PUSH0 DUP5 DUP3 PUSH2 0xF2 SWAP2 SWAP1 PUSH2 0x413 JUMP JUMPDEST SWAP1 POP POP POP SWAP4 POP SWAP4 SWAP2 POP POP JUMP JUMPDEST PUSH1 0x60 DUP2 PUSH20 0x0 PUSH4 0x8FBA8D5C SWAP1 SWAP2 PUSH1 0x40 MLOAD DUP3 PUSH4 0xFFFFFFFF AND PUSH1 0xE0 SHL DUP2 MSTORE PUSH1 0x4 ADD PUSH2 0x139 SWAP2 SWAP1 PUSH2 0x463 JUMP JUMPDEST PUSH0 PUSH1 0x40 MLOAD DUP1 DUP4 SUB DUP2 DUP7 GAS DELEGATECALL ISZERO DUP1 ISZERO PUSH2 0x153 JUMPI RETURNDATASIZE PUSH0 DUP1 RETURNDATACOPY RETURNDATASIZE PUSH0 REVERT JUMPDEST POP POP POP POP PUSH1 0x40 MLOAD RETURNDATASIZE PUSH0 DUP3 RETURNDATACOPY RETURNDATASIZE PUSH1 0x1F NOT PUSH1 0x1F DUP3 ADD AND DUP3 ADD DUP1 PUSH1 0x40 MSTORE POP DUP2 ADD SWAP1 PUSH2 0x17B SWAP2 SWAP1 PUSH2 0x59A JUMP JUMPDEST SWAP1 POP SWAP2 SWAP1 POP JUMP JUMPDEST PUSH1 0x60 PUSH20 0x0 PUSH4 0x8FBA8D5C DUP4 PUSH1 0x40 MLOAD DUP3 PUSH4 0xFFFFFFFF AND PUSH1 0xE0 SHL DUP2 MSTORE PUSH1 0x4 ADD PUSH2 0x1BB SWAP2 SWAP1 PUSH2 0x463 JUMP JUMPDEST PUSH0 PUSH1 0x40 MLOAD DUP1 DUP4 SUB DUP2 DUP7 GAS DELEGATECALL ISZERO DUP1 ISZERO PUSH2 0x1D5 JUMPI RETURNDATASIZE PUSH0 DUP1 RETURNDATACOPY RETURNDATASIZE PUSH0 REVERT JUMPDEST POP POP POP POP PUSH1 0x40 MLOAD RETURNDATASIZE PUSH0 DUP3 RETURNDATACOPY RETURNDATASIZE PUSH1 0x1F NOT PUSH1 0x1F DUP3 ADD AND DUP3 ADD DUP1 PUSH1 0x40 MSTORE POP DUP2 ADD SWAP1 PUSH2 0x1FD SWAP2 SWAP1 PUSH2 0x59A JUMP JUMPDEST SWAP1 POP SWAP2 SWAP1 POP JUMP JUMPDEST PUSH0 PUSH1 0x40 MLOAD SWAP1 POP SWAP1 JUMP JUMPDEST PUSH0 DUP1 REVERT JUMPDEST PUSH0 DUP1 REVERT JUMPDEST PUSH0 DUP2 SWAP1 POP SWAP2 SWAP1 POP JUMP JUMPDEST PUSH2 0x227 DUP2 PUSH2 0x215 JUMP JUMPDEST DUP2 EQ PUSH2 0x231 JUMPI PUSH0 DUP1 REVERT JUMPDEST POP JUMP JUMPDEST PUSH0 DUP2 CALLDATALOAD SWAP1 POP PUSH2 0x242 DUP2 PUSH2 0x21E JUMP JUMPDEST SWAP3 SWAP2 POP POP JUMP JUMPDEST PUSH0 DUP1 PUSH0 PUSH1 0x60 DUP5 DUP7 SUB SLT ISZERO PUSH2 0x25F JUMPI PUSH2 0x25E PUSH2 0x20D JUMP JUMPDEST JUMPDEST PUSH0 PUSH2 0x26C DUP7 DUP3 DUP8 ADD PUSH2 0x234 JUMP JUMPDEST SWAP4 POP POP PUSH1 0x20 PUSH2 0x27D DUP7 DUP3 DUP8 ADD PUSH2 0x234 JUMP JUMPDEST SWAP3 POP POP PUSH1 0x40 PUSH2 0x28E DUP7 DUP3 DUP8 ADD PUSH2 0x234 JUMP JUMPDEST SWAP2 POP POP SWAP3 POP SWAP3 POP SWAP3 JUMP JUMPDEST PUSH2 0x2A1 DUP2 PUSH2 0x215 JUMP JUMPDEST DUP3 MSTORE POP POP JUMP JUMPDEST PUSH0 PUSH1 0x40 DUP3 ADD SWAP1 POP PUSH2 0x2BA PUSH0 DUP4 ADD DUP6 PUSH2 0x298 JUMP JUMPDEST PUSH2 0x2C7 PUSH1 0x20 DUP4 ADD DUP5 PUSH2 0x298 JUMP JUMPDEST SWAP4 SWAP3 POP POP POP JUMP JUMPDEST PUSH0 PUSH1 0x20 DUP3 DUP5 SUB SLT ISZERO PUSH2 0x2E3 JUMPI PUSH2 0x2E2 PUSH2 0x20D JUMP JUMPDEST JUMPDEST PUSH0 PUSH2 0x2F0 DUP5 DUP3 DUP6 ADD PUSH2 0x234 JUMP JUMPDEST SWAP2 POP POP SWAP3 SWAP2 POP POP JUMP JUMPDEST PUSH0 DUP2 MLOAD SWAP1 POP SWAP2 SWAP1 POP JUMP JUMPDEST PUSH0 DUP3 DUP3 MSTORE PUSH1 0x20 DUP3 ADD SWAP1 POP SWAP3 SWAP2 POP POP JUMP JUMPDEST DUP3 DUP2 DUP4 MCOPY PUSH0 DUP4 DUP4 ADD MSTORE POP POP POP JUMP JUMPDEST PUSH0 PUSH1 0x1F NOT PUSH1 0x1F DUP4 ADD AND SWAP1 POP SWAP2 SWAP1 POP JUMP JUMPDEST PUSH0 PUSH2 0x33B DUP3 PUSH2 0x2F9 JUMP JUMPDEST PUSH2 0x345 DUP2 DUP6 PUSH2 0x303 JUMP JUMPDEST SWAP4 POP PUSH2 0x355 DUP2 DUP6 PUSH1 0x20 DUP7 ADD PUSH2 0x313 JUMP JUMPDEST PUSH2 0x35E DUP2 PUSH2 0x321 JUMP JUMPDEST DUP5 ADD SWAP2 POP POP SWAP3 SWAP2 POP POP JUMP JUMPDEST PUSH0 PUSH1 0x20 DUP3 ADD SWAP1 POP DUP2 DUP2 SUB PUSH0 DUP4 ADD MSTORE PUSH2 0x381 DUP2 DUP5 PUSH2 0x331 JUMP JUMPDEST SWAP1 POP SWAP3 SWAP2 POP POP JUMP JUMPDEST PUSH32 0x4E487B7100000000000000000000000000000000000000000000000000000000 PUSH0 MSTORE PUSH1 0x12 PUSH1 0x4 MSTORE PUSH1 0x24 PUSH0 REVERT JUMPDEST PUSH32 0x4E487B7100000000000000000000000000000000000000000000000000000000 PUSH0 MSTORE PUSH1 0x11 PUSH1 0x4 MSTORE PUSH1 0x24 PUSH0 REVERT JUMPDEST PUSH0 PUSH2 0x3ED DUP3 PUSH2 0x215 JUMP JUMPDEST SWAP2 POP PUSH2 0x3F8 DUP4 PUSH2 0x215 JUMP JUMPDEST SWAP3 POP DUP3 PUSH2 0x408 JUMPI PUSH2 0x407 PUSH2 0x389 JUMP JUMPDEST JUMPDEST DUP3 DUP3 DIV SWAP1 POP SWAP3 SWAP2 POP POP JUMP JUMPDEST PUSH0 PUSH2 0x41D DUP3 PUSH2 0x215 JUMP JUMPDEST SWAP2 POP PUSH2 0x428 DUP4 PUSH2 0x215 JUMP JUMPDEST SWAP3 POP DUP3 DUP3 MUL PUSH2 0x436 DUP2 PUSH2 0x215 JUMP JUMPDEST SWAP2 POP DUP3 DUP3 DIV DUP5 EQ DUP4 ISZERO OR PUSH2 0x44D JUMPI PUSH2 0x44C PUSH2 0x3B6 JUMP JUMPDEST JUMPDEST POP SWAP3 SWAP2 POP POP JUMP JUMPDEST PUSH2 0x45D DUP2 PUSH2 0x215 JUMP JUMPDEST DUP3 MSTORE POP POP JUMP JUMPDEST PUSH0 PUSH1 0x20 DUP3 ADD SWAP1 POP PUSH2 0x476 PUSH0 DUP4 ADD DUP5 PUSH2 0x454 JUMP JUMPDEST SWAP3 SWAP2 POP POP JUMP JUMPDEST PUSH0 DUP1 REVERT JUMPDEST PUSH0 DUP1 REVERT JUMPDEST PUSH32 0x4E487B7100000000000000000000000000000000000000000000000000000000 PUSH0 MSTORE PUSH1 0x41 PUSH1 0x4 MSTORE PUSH1 0x24 PUSH0 REVERT JUMPDEST PUSH2 0x4BA DUP3 PUSH2 0x321 JUMP JUMPDEST DUP2 ADD DUP2 DUP2 LT PUSH8 0xFFFFFFFFFFFFFFFF DUP3 GT OR ISZERO PUSH2 0x4D9 JUMPI PUSH2 0x4D8 PUSH2 0x484 JUMP JUMPDEST JUMPDEST DUP1 PUSH1 0x40 MSTORE POP POP POP JUMP JUMPDEST PUSH0 PUSH2 0x4EB PUSH2 0x204 JUMP JUMPDEST SWAP1 POP PUSH2 0x4F7 DUP3 DUP3 PUSH2 0x4B1 JUMP JUMPDEST SWAP2 SWAP1 POP JUMP JUMPDEST PUSH0 PUSH8 0xFFFFFFFFFFFFFFFF DUP3 GT ISZERO PUSH2 0x516 JUMPI PUSH2 0x515 PUSH2 0x484 JUMP JUMPDEST JUMPDEST PUSH2 0x51F DUP3 PUSH2 0x321 JUMP JUMPDEST SWAP1 POP PUSH1 0x20 DUP2 ADD SWAP1 POP SWAP2 SWAP1 POP JUMP JUMPDEST PUSH0 PUSH2 0x53E PUSH2 0x539 DUP5 PUSH2 0x4FC JUMP JUMPDEST PUSH2 0x4E2 JUMP JUMPDEST SWAP1 POP DUP3 DUP2 MSTORE PUSH1 0x20 DUP2 ADD DUP5 DUP5 DUP5 ADD GT ISZERO PUSH2 0x55A JUMPI PUSH2 0x559 PUSH2 0x480 JUMP JUMPDEST JUMPDEST PUSH2 0x565 DUP5 DUP3 DUP6 PUSH2 0x313 JUMP JUMPDEST POP SWAP4 SWAP3 POP POP POP JUMP JUMPDEST PUSH0 DUP3 PUSH1 0x1F DUP4 ADD SLT PUSH2 0x581 JUMPI PUSH2 0x580 PUSH2 0x47C JUMP JUMPDEST JUMPDEST DUP2 MLOAD PUSH2 0x591 DUP5 DUP3 PUSH1 0x20 DUP7 ADD PUSH2 0x52C JUMP JUMPDEST SWAP2 POP POP SWAP3 SWAP2 POP POP JUMP JUMPDEST PUSH0 PUSH1 0x20 DUP3 DUP5 SUB SLT ISZERO PUSH2 0x5AF JUMPI PUSH2 0x5AE PUSH2 0x20D JUMP JUMPDEST JUMPDEST PUSH0 DUP3 ADD MLOAD PUSH8 0xFFFFFFFFFFFFFFFF DUP2 GT ISZERO PUSH2 0x5CC JUMPI PUSH2 0x5CB PUSH2 0x211 JUMP JUMPDEST JUMPDEST PUSH2 0x5D8 DUP5 DUP3 DUP6 ADD PUSH2 0x56D JUMP JUMPDEST SWAP2 POP POP SWAP3 SWAP2 POP POP JUMP INVALID LOG2 PUSH5 0x6970667358 0x22 SLT KECCAK256 MSTORE8 0x2F LOG4 RETURNDATACOPY 0xB7 PUSH25 0xFB6098DC453FE6327BDA3E2B425A62F01298C4D45414312E5C PUSH3 0x64736F PUSH13 0x634300081A0033000000000000 "
				},
				"gasEstimates": {
					"creation": {
						"codeDepositCost": "311800",
						"executionCost": "347",
						"totalCost": "312147"
					},
					"external": {
						"getString1(uint256)": "infinite",
						"getString2(uint256)": "infinite",
						"info(uint256,uint256,uint256)": "infinite"
					}
				},
				"methodIdentifiers": {
					"getString1(uint256)": "d6ee0f32",
					"getString2(uint256)": "e65eac98",
					"info(uint256,uint256,uint256)": "284965be"
				}
			},
			"storageLayout": {
				"storage": [],
				"types": null
			},
			"userdoc": {
				"kind": "user",
				"methods": {},
				"version": 1
			}
		}
	}
}